:020000040800F2
:10000000300C0020690100085D1D0008F51700088C
:1000100000000000000000000000000000000000E0
:100020000000000000000000000000005121000856
:100030000000000000000000E11F00089D2A0008E9
:100040007B0100087B01000801200008CD16000894
:10005000E51F0008211600087B0100087B0100084D
:100060007B0100087B0100087B0100087B01000880
:100070007B0100087B010008000000007B010008F4
:10008000000000007B0100080000000000000000EC
:100090007B010008000000007B010008191800081F
:1000A0007B0100087B0100087B0100087B01000840
:1000B0007B0100087B0100087B0100087B01000830
:1000C00000F002F800F041F80CA030C808382418FD
:1000D0002D18A246671EAB4654465D46AC4201D180
:1000E00000F033F87E460F3E0FCCB6460126334271
:1000F00000D0FB1AA246AB4633431847E8D50000B0
:1001000008D600000023002400250026103A01D361
:1001100078C1FBD8520700D330C100D50B607047BF
:1001200010B5642902D100F095F810BD002010BD73
:100130001FB501F01BF80400002000210DF0A2F80B
:10014000401C60601FBD10B510BD01F048F811469D
:10015000FFF7EEFF05F0CCFF01F060F803B4FFF706
:10016000F2FF03BC00F0FCFF074880470748004748
:10017000FEE7FEE7FEE7FEE7FEE7FEE70448054987
:10018000054A064B70470000A12B0008C10000087B
:1001900030060020300C00203008002030080020FD
:1001A00010B5044600F0B6FE0068005D000704D5F7
:1001B000DF2C02D02046203810BD204610BD0000A4
:1001C0000FB41CB5074B06AA7B44694600900598FE
:1001D00000F005FF0020694600F014FF1CBC08BCBD
:1001E00004B01847390E0000F8B50E46044600204A
:1001F00020622046E1688847002829D0252802D0BF
:100200006268A16820E0E168204600278847050071
:100210001ED028464138192802D80127FF02203570
:100220003246204627602946FFF77AFF002808D08B
:10023000012804D0F61DF608F6000836D9E7361D69
:10024000D7E762682846A1689047206A401CCFE73C
:10025000206AF8BDF7B5002575291068009914A625
:1002600011D0C046C046002802DA404211A608E07C
:10027000009909688A0701D50FA602E0490704D54D
:100280000EA6012501E0C046C046009F0024243789
:1002900004E000F0D0FE30313955641C0028F8D15C
:1002A0002B4632462146009800F03CFEFEBD000081
:1002B000000000002D0000002B00000020000000C6
:1002C0000EB5044615460E4612A000F0AAFE2046C2
:1002D00000F0A7FE15A000F0A4FE304600F0A1FE3D
:1002E00014A000F09EFE6C460020E0720A20A0726E
:1002F0000A3407E00A21284600F02AF83031054682
:10030000641E2170002DF5DC204600F08AFE00F00E
:100310007EFE00002A2A2A20617373657274696F59
:100320006E206661696C65643A2000002C20666965
:100330006C6520002C206C696E652000002203098A
:100340008B422CD3030A8B4211D300239C464EE0F0
:1003500003460B433CD4002243088B4231D30309AC
:100360008B421CD3030A8B4201D394463FE0C3095E
:100370008B4201D3CB01C01A524183098B4201D376
:100380008B01C01A524143098B4201D34B01C01A61
:10039000524103098B4201D30B01C01A5241C308D9
:1003A0008B4201D3CB00C01A524183088B4201D348
:1003B0008B00C01A524143088B4201D34B00C01A34
:1003C0005241411A00D201465241104670475DE049
:1003D000CA0F00D04942031000D3404253400022CC
:1003E0009C4603098B422DD3030A8B4212D3FC2275
:1003F000890112BA030A8B420CD3890192118B42F4
:1004000008D3890192118B4204D389013AD0921109
:1004100000E08909C3098B4201D3CB01C01A5241C4
:1004200083098B4201D38B01C01A524143098B428D
:1004300001D34B01C01A524103098B4201D30B0176
:10044000C01A5241C3088B4201D3CB00C01A52419B
:1004500083088B4201D38B00C01A5241D9D2430882
:100460008B4201D34B00C01A5241411A00D20146BF
:10047000634652415B10104601D34042002B00D529
:100480004942704763465B1000D3404201B50020EB
:10049000C046C04602BD7047704770470246C80F4D
:1004A000C00781434B0030B54B405B009B0D20D013
:1004B0001923DB06C91801231B05994220DB0324FD
:1004C000A40704251346AB400BD3002B04D1EB0645
:1004D00013409B00E34204D4012464070023121953
:1004E0005941FF231B0599420BD2C9000143500F0C
:1004F00009E0CB0204D501430803024305D00548B7
:1005000030BDFF21C905084330BD08460721090554
:10051000884330BD0000C07FF0B50C46871A9C416F
:100520000D46861A9D4103D2C01BA141D2196341D9
:100530000D0D1F0DC94EEC1BAE435CD07F057F0D2A
:100540000026002F51D02D05AC46A943DD02012322
:10055000ED0A1B051D4320231B1B24D41746E7402F
:10056000381871412F46E740CC199D402818314674
:1005700061410C0D27D161449A4013D50023401CE2
:10058000594152000ED14008400001224B00520553
:10059000D34207D305204007C14201D5B04900E04E
:1005A000B0493046F0BD6B00002A00D001229A18F5
:1005B0001F23203C1B1B01D5002302E0E540281827
:1005C00071410C0DD7D0012424050919C407CD07AA
:1005D00040084908E40F28436144002CD5D000248A
:1005E000401C61419A40D0D1CDE76A05520DD9D166
:1005F000C90FC907D5E79C4D4E00002801D0012442
:1006000000E0002434195F00002A01D0012600E038
:100610000026BE19954FAC420CD8AE420AD8B4425F
:1006200006D001256D05EC42BCD010461946F0BD40
:100630009942FCD000203946F0BDF0B51FB40C46FD
:100640000F46811A9F412546861A9D4106D20125F3
:10065000ED076F40401ABC4152187B41210D1E0D21
:100660008D1BAC467D4D8D437ED075056D0D7CD0C8
:100670000D05AE46AC431B031B0B794D52429D4109
:10068000202366469B1B14D31746F74038180026D4
:100690000090744160462F460741E41900989D4040
:1006A0002818664116D4714671189A4025D5012341
:1006B00020E093182A466A415200002B00D0521CB9
:1006C0001E23203E9B1B002B61DD3541EE172818B1
:1006D0006641E8D5001876415B1C9A4000D3401C67
:1006E0004B05F3181524E34010D3002B52D071466C
:1006F0007118D30FC01802D3491C05B0F0BD0123F7
:10070000DB079A42F9D140084000F6E70122520582
:10071000B21801D1002853D00123CC0ADB0299433F
:10072000891E002A08D1020C03D0020C00041039E3
:1007300002E00246002020390023550B05D11202A9
:100740000823550B01D152010D23550C01D1120183
:100750001B1DD50C01D192009B1C150D01D152001F
:100760005B1C2025EE1A01E02CE022E00546F54056
:1007700015439840CA1AE10769181305C918002AD9
:10078000BBDA032040070818C10FC9070FE0714604
:100790006118B2E7F10740080843711071444A003C
:1007A0000CD001235B059A42A7D2C90FC9070020CC
:1007B000A3E74905490D26D1002001E00028F4D126
:1007C00000219AE7284D6600002801D0012100E0B1
:1007D000002171185F00002A01D0012600E00026E8
:1007E000BE19224FA94210D8AE420ED8B14208D04D
:1007F00001256D05E94206D01946A8024140104680
:100800007BE79C4201D0214677E70020394674E718
:1008100010B50C465C4005D50124E4076340FFF7A2
:100820000CFF10BDFFF778FE10BD30B40C465C40E5
:1008300004D50124E407634030BC6DE630BCFCE61F
:1008400070B50124E40761400D465D4002D4FFF716
:1008500063FE70BD6340FFF7F0FE70BDFF07000050
:100860000000F0FF0000F07F0000E0FF0000F87FD4
:10087000F0B5F94D0C091E092C402E402F468BB0C7
:10088000A7437DD0B543FCD0002E7AD0002CFCD0FD
:100890000D465D40ED0F2543AC1BFF25AD046419EB
:1008A0000894C502440DC9022143500DDC020443E3
:1008B0000120C00701430443D2020191200C110C16
:1008C00000958C46010423468B430A916146090436
:1008D000E24D8A430991010A7D444919803909781A
:1008E00005464D4301266D18F605751B6943C90C75
:1008F000640B891C4C436418B5012C1B250C2E0479
:10090000B4434C434D43210C691889090591009D5E
:10091000E90701D00121C90704912C460199670814
:10092000CD072F434C08059DE10B4D432D0C294667
:100930006646754302950D4645432E46029D7D1B36
:10094000B44100950D465D4301942C0C2F040D46D7
:100950005543AE462D0C3D43029503947546049CC9
:100960002D04641B049406D2029C039D641C002683
:1009700075410395029401AC70CC009F7D1B01E092
:100980003EE162E1B44109040095079101940599A3
:10099000A4086143090C0C464443650BE7040C466C
:1009A00066467443A646640B3C4303950294744622
:1009B000049DE4042C1B049406D2029C039D641C39
:1009C000002675410395029401AC70CC009F7D1BFD
:1009D000B44101940C465C430095650FE7000C465A
:1009E0005443A646640F3C43039502947446049D09
:1009F000E4002C1B049406D2029C039D641C002678
:100A000075410395029401AC70CC009F7D1BB441ED
:100A1000AE09AF06049DC900AD092F43049DA4068D
:100A2000AD060495079D344369180791059DE10BB8
:100A30004D432D0C29466646754302950D464543A8
:100A40002E46029D7D1BB44100950D465D430194E9
:100A50002C0C2F040D465543AE462D0C3D430295FC
:100A600003947546049C2D04641B049406D2029CD6
:100A7000039D641C002675410395029401AC70CC63
:100A8000009F7D1BB44101948C050694079C890A44
:100A9000611800950791019C0599A4086143090C10
:100AA0000D464543680BEF040D46644665436C0BE9
:100AB0003C43049FED047D1BAC4602D20025641C20
:100AC0006841009E019D371B8541084658430195AA
:100AD0000C46460FC5005443600F28436546E400AA
:100AE0002C1B02D20025401C6E41019D3F1AB541CE
:100AF0002846BD09800628438446A009BF064E0249
:100B00000699A40676180743079D002068410A99B4
:100B1000079019430020099B00906046FF1913437A
:100B20004041E20F64003A43A4460446D71A8C4180
:100B3000A04203D90120009020463A46C70F9418DE
:100B400040416246D20F2243644664000494009CF4
:100B5000BE466400D71AA446044602978C417746E5
:100B6000002F01D1A04204D96046401C8446029A5D
:100B70002046C40FA64694184041049A0546D20F59
:100B8000224364466400D31A8D417146002901D185
:100B9000A84202D928461A46641C104301220028A4
:100BA00000D0164361020020079B891904465C416E
:100BB0000223002C02DB491813466441089DCE0A2B
:100BC0002D145D194B056705E10A2C050D190899CF
:100BD0003E43C9076940002B08D0934006D300224A
:100BE000761C5141002B01D1760876001C4A002D5D
:100BF00043DB154241D0AA433FD030460BB0F0BD95
:100C000006180D464D41174C7642AC411AD3951843
:100C10001C465C41134A6D42A24113D30122520586
:100C20004C00D4420AD15C00D4420BD04B4002D5D8
:100C300092021143E2E749004908DFE75940C90F32
:100C4000C90718E000200849D8E7054801420DD13E
:100C50000342F7D0F2E700000000FF0745CD000097
:100C60000000F07F0000E0FF0000F87F11485940CD
:100C70000143C01241400020C0E70123089A9B06AF
:100C80009A4205DC032252078918C90FC907B5E744
:100C9000052252078918074A1143D2125140ADE785
:100CA00070B515461C4602460B4628462146FFF7FE
:100CB000DFFD70BDFFFFFF7F0346CA02400D10B588
:100CC00010430A1504D00124E4072043002A05DB61
:100CD0000A4CA21A04D4D040FF2A00DD002010BD27
:100CE0004A00002B01D0012000E000201018012252
:100CF0005205D042F2D8C817C04310BD1E040000F0
:100D00000121C9050123411842001B06D3185B0EBF
:100D10000AD0C1100722D206891840075242D14298
:100D200001D5520089187047090208D50146002AEA
:100D300003D0C10FC9070020704710467047420218
:100D400002D0002002497047072109050143F4E75A
:100D50000000F87FF0B5FF252D04C609C209FF2762
:100D600004462E400137CB093E4348402A402B40E1
:100D70000746002A6BD0002B69D0AA4267D0AB424D
:100D800065D0002800DA32460125ED0529432C43C1
:100D900009022002090AD21A4B0C7F24E31A434CA1
:100DA000000A7C44E35C7D242404121914145B00C3
:100DB000A218884201D3521C00E0400049420C4670
:100DC0005C4324115C43DB016415E318040A5C43B3
:100DD000C502200D0C4644436419250A5D432303D4
:100DE000EC0C0D46654300030019EB184C42A3427E
:100DF00001D35B18401CD4052018002B07D05B00E2
:100E0000C91804D3401C002901D1400840003F21EB
:100E100089048A4209D3002A08DC1106090F04D08C
:100E2000032149074018C00FC007F0BD012241004F
:100E3000120689187F2252069142F6D205214907EF
:100E4000C84201D59010F0BDFF20C005F0BD002FB5
:100E500000DA32461648AA4207D2AB4205D219023E
:100E6000090E17D0F80FC007F0BDFF2563002D064F
:100E7000AB42F9D84900A942F6D8AB4201D1A94208
:100E8000F2D0A94201D1002101E061004908D0055A
:100E90000843F0BD1102090EFBD0FF200243D0052C
:100EA000F0BD0A460146104654E70000FBC80000AA
:100EB0000000C07F1F22030C02D10F2200041CD0AF
:100EC000030E01D10002083A030F01D10001121FE5
:100ED000830F01D18000921E002801DB4000521ECA
:100EE000D2055118021251181922904004D3491CFE
:100EF000002801D14908490008467047C10FC907B9
:100F000000D04042012292071143D3E70121890713
:100F1000D0E7000010B500F029F9001D10BD00BF9A
:100F200065C30000FFB504460D4681B02430009033
:100F30002168880604D51022E0699143216000E011
:100F40000120A84201DD471B00E000270498A169A9
:100F50007A191018081AA0612078C00602D4204619
:100F6000C046C046002608E003986268A168805D1C
:100F70009047206A401C761C206204988642F3DB6E
:100F80002078C0060AD52046C046C04606E0626802
:100F9000A16830209047206A401C206238467F1E9E
:100FA0000028F4DC07E000986268A168405D904783
:100FB000206A401C206228466D1E0028F3DC204673
:100FC000C046C0462078000602D5022005B0F0BD1C
:100FD0000120FBE701694A1C02610878704700B5EF
:100FE0008FB0029100210591054901937944039145
:100FF000114604906846FFF7F7F80FB000BD0000F7
:10100000E5FFFFFF0A681070521C0A60704710B5B8
:10101000002000F0AFF8FFF796F8012000F0A0F8EC
:1010200010BD10B5044602E0641C00F093F820786F
:101030000028F9D110BD01468008081A02091018CD
:10104000020A1018020C1018C00882001218520070
:10105000891A01E0401C0A390A29FBD270470000B6
:10106000F8B5224C4E00069DA6420AD8A64201D1F0
:10107000002806D15E00A64203D8A6420AD1002A63
:1010800008D00D24240425422CD02946002000F04D
:1010900077F8F8BD0C461C430CD4994202D0EFF30C
:1010A0000080F8BD904202D0EFF30080F8BDEFF36E
:1010B0000080F8BD09242407E5008B4206D0EFF339
:1010C0000080A043591A06D2284304E0101A05D321
:1010D000EFF30080A04380F30088F8BDEFF30080B9
:1010E000A043F1E7009500F063F8F8BD0000E0FFD1
:1010F00010B5FF231B0644009C421DD84C009C42A7
:101100001AD80346124A0B4307D4401A02D3EFF30E
:10111000008010BDEFF3008010BD081A06D2EFF377
:10112000008001219043C907084302E0EFF30080EB
:10113000904380F3008810BD0D231B041A4204D095
:101140001146002000F01CF810BD00F03BF810BD67
:101150000000009008B5694608700320ABBE08BDCA
:1011600001491820ABBEFEE7260002000048704788
:10117000EC05002010B500F05FF800F057F810BD46
:10118000C80212D54803400F002804D0C803C0434A
:10119000012188407047EFF300800001000903211E
:1011A0000907084380F3008870470020704700005B
:1011B00010B500200249029A00F09AF810BD000014
:1011C0000000F87F10B5024800F092F810BD000052
:1011D0000000C07F00487047CC050020704775466E
:1011E000FFF7F8FFAE46050069465346C008C00049
:1011F000854618B020B5FEF7C1FF60BC002749083E
:10120000B6460026C0C5C0C5C0C5C0C5C0C5C0C59E
:10121000C0C5C0C5403D49008D46704710B5044665
:10122000C046C0462046FEF799FF10BD10B5002805
:1012300001D0FFF795FF10BD10B5002102A000F00E
:1012400086F8012010BD0000534947414252543AEC
:101250002041626E6F726D616C207465726D696E93
:101260006174696F6E000000024670B50A43920710
:101270002AD11E4DEE0104C808C9541B94433440C2
:1012800017D0D0B2D9B2401A2106014310D190B282
:1012900099B2401A210401430AD110021902000A2E
:1012A000090A401A2102014302D1100E190E401AF8
:1012B00070BD9A42DFD010BA19BA884201D9012014
:1012C00070BD0020C04370BD02780B78401C491CE3
:1012D000002A09D09A4207D102780B78401C491C99
:1012E000002A01D09A42EFD0D01A70BD010101014D
:1012F00010B50C461107090F092904D00A290AD094
:1013000008290CD104E011460820FFF739FF06E058
:10131000510606D501E0510601D50120C00721463E
:1013200010BDD10607D501010909CC084907000EF7
:101330000006044309E0410F20024907000A014367
:10134000200E00061D22D14101430846E7E770B593
:1013500005460C460A2000E06D1CFFF7FBFE002D41
:1013600006D028780028F7D102E0641CFFF7F2FECF
:10137000002C02D020780028F7D10A20FFF7EAFEDF
:1013800070BD70B58C180578401C6B075B0F01D1E0
:101390000378401C2A1106D10278401C03E006782D
:1013A000401C0E70491C5B1EF9D12B0705D400238D
:1013B000521E0DD40B70491CFAE70378401CCB1A5F
:1013C000921C03E01D780D70491C5B1C521EF9D560
:1013D000A142D8D3002070BD70B504460D46002050
:1013E000024908700BF06AFE70BD00009B010020EE
:1013F00014498968C907C90F002905D011498968AE
:10140000022211430F4A91600E4989680122D207D6
:1014100011430C4A9160002004E0401C0A498842B4
:1014200000D906E0074909680122D20211400029CB
:10143000F3D000BF034909680122D2021143014AD7
:101440001160704700240140102700001148806897
:101450000121490608430F4988600F480069800050
:1014600080080D49086108460069090508430A49D2
:1014700008610846C0680121C90308430649C860DD
:1014800001208862084640690721084302494861F3
:101490007047000000270140002401400C48406BC9
:1014A0000121890508430A4948630A484068022126
:1014B0000843084948600848006904210843064970
:1014C00008610648006802218843044908607047A3
:1014D000001002400058014000ED00E000700040A4
:1014E00010B50F48806800090001401C0C49886055
:1014F0000C480068012108430A49086008468068D2
:1015000001210843074988600021052000F078FC8C
:10151000052001218140044A116000BF10BD000078
:10152000000001400004014000E100E000211C4AED
:101530001160002818D01B490978491E1A4A515CCD
:10154000491CCAB217490978491E174B5A54154904
:101550000978491E1A46515C1E291FD100221149E3
:101560000978491E5A5419E00E490978491E0E4A55
:10157000515C002906D11D220A490978491E0A4BEF
:101580005A540BE007490978491E074A515C491E25
:10159000CAB204490978491E034B5A5470470000E7
:1015A000000100200B030020B302002000210020D6
:1015B000194A926804231A40002A05D0164A9268F4
:1015C00010231A43144B9A6004E0491C134A9142B9
:1015D00000D905E0104A926810231A40002AF4D17D
:1015E00000BF0D4A926802231A430B4B9A6004E035
:1015F000401C0A4A904200D905E0074A9268D20787
:10160000D20F002AF4D100BF034A926801231B07BE
:101610009A43014B9A607047002401401027000054
:1016200010B50A484069C007C00F00280CD0084810
:101630000068002802D0002001F0D6FF034840696E
:10164000012108430149486110BD00000004014028
:101650005003002008494968212212011143064A1B
:1016600051600021016030BF1146496821221201FA
:101670009143014A51607047002002401148806840
:10168000012108430F4988600846C0680121C90349
:10169000084000280ED100BF04E0401C0A498842DF
:1016A00000D905E007490968C907C90F0029F4D026
:1016B00000BF00BF034880680121090708430149B2
:1016C0008860704700240140102700004748806967
:1016D00002210840002803D002204449886184E0A8
:1016E0004248806901214904084000280AD0404846
:1016F0000088402108433E490880012040043B49BE
:10170000886172E039488069012109040840002895
:101710000AD037480088C91108433549088001209C
:1017200000043249886160E0304880690121890203
:10173000084000280AD02E480088802108432C4900
:10174000088001208002294988614EE0274880698D
:10175000FF210131084000280AD0254800881021C7
:10176000084323490880FF200130204988613CE07C
:101770001E48806901214903084000280AD01C48FE
:101780000088202108431A49088001204003174996
:1017900088612AE0154880690121C90208400028B3
:1017A0000AD01348008849100843114908800120D5
:1017B000C0020E49886118E00C4880690121490285
:1017C000084000280AD00A48008849100843084900
:1017D0000880012040020549886106E0044800882D
:1017E0000121C902084302490880704700200240D5
:1017F000000000200AE000BFBFF34F8F04480549F6
:10180000C860BFF34F8F00BF00BFFEE7F3E70000E3
:101810000400FA0500ED00E0014988697047000006
:101820000054004070B53C48C06A022108433A4960
:10183000C862062507260846806B01214905084332
:10184000354988633548006889150843334908607D
:1018500033484068C021084331494860690001208D
:10186000884072000121914040182D490968C94300
:101870000843C0432A490860112000060862084650
:1018800080680F21090308432549886023480068C0
:1018900001210843214908600846006840084000CB
:1018A0000860002404E0641C1E48844200D905E05E
:1018B0001A480068C007C00F0028F4D100BF1A48BA
:1018C0001649086108460068012108431349086069
:1018D000002404E0641C1348844200D905E00F484A
:1018E0000068C007C00F0028F4D000BF0B48406854
:1018F0007021084309494860084640680915884333
:1019000006494860172001218140084A116000BF44
:10191000002100F0B1FA70BD0010024000540040F8
:1019200000040050102700001906300000E100E01C
:1019300070B505460E4632484068112149030843F8
:101940002F494860002406E0641C2E48844202D9D6
:1019500000F0E8FB06E02A484068012149030840FE
:101960000028F1D100BF26488069C007C00F0028B9
:1019700001D023488562002406E0641C214884428B
:1019800002D900F0CFFB05E01D488069C007C00FF9
:101990000028F2D000BF1A488069C007C00F002895
:1019A00001D017488662002406E0641C1548844272
:1019B00002D900F0B7FB05E011488069C007C00FED
:1019C0000028F2D000BF0E48406801218903084377
:1019D0000B49486004E0641C0A48844200D906E0D0
:1019E000074880690121C90308408842F3D000BF3D
:1019F0000348C069202108430149C86170BD000047
:101A0000005400401027000070B503460C4600202B
:101A100033494968551C2D04012676033543294373
:101A20002F4D696004E0401C2E49884200D906E031
:101A30002B49496801256D0329400029F3D100BFD6
:101A400027498969C907C90F002901D024498B6238
:101A5000002004E0401C2349884200D905E02049C9
:101A60008969C907C90F0029F4D000BF002118E017
:101A70001B4DAD69ED07ED0F002D03D08D006559AD
:101A8000174EB562002004E0401C164DA84200D954
:101A900005E0134DAD69ED07ED0F002DF4D000BF4B
:101AA000491C9142E4D30E4949680125AD032943FD
:101AB0000B4D6960002004E0401C0A49884200D9AF
:101AC00006E0074989690125ED032940A942F3D0C1
:101AD00000BF0349C96920252943014DE96170BD53
:101AE000005400401027000010B501F0F9F8094833
:101AF000007809490978084000280AD001200749E0
:101B00000870002004490870054908700120054943
:101B1000087010BD590100205D0100208C010020DB
:101B2000890100208B0100203E4A926B01231B0794
:101B30001A433C4B9A633C4A12680323DB029A43E4
:101B40000123DB02D218384B1A6000BF364A5268B4
:101B500010231A40002AF9D1334A12681B011A4394
:101B6000314B1A602F4A926B01231B079A432D4B6E
:101B70009A632C4A403212690123DB041A43294B31
:101B800040331A611A4612690123DB049A43254B3C
:101B900040331A611A46126921231B021A43214B52
:101BA00040331A6100BF1F4A4032126901235B02B1
:101BB0001A409A42F7D11B4A4032126903231B0490
:101BC0009A4305231B041A43164B40331A61CA2259
:101BD000164B5A6253225A628022DA6000BF134ABF
:101BE000D26840231A40402AF9D1114A0F4B1A619A
:101BF0001A4610605160926840239A430B4B9A60DA
:101C00008022D243DA6000BF084AD26801231B0455
:101C10001A409A42F8D0FE22044B5A6264225A6259
:101C20007047000000100240007000400028004093
:101C3000FF007F00002004E000218200024B995049
:101C4000401C1E28F8DB7047540500200E20054973
:101C500089690122120482401143024A916100BF46
:101C6000704700000004005010B50E21014803F039
:101C700037FE10BD00040050002004E0401C09495C
:101C8000884200D905E008498969C907C90F0029B8
:101C9000F4D100BF0449496801221143024A51604E
:101CA00070470000102700000020024000280BD0E1
:101CB0000C490978491C0B4A1170114609786429AE
:101CC0000FD1002111700CE006490978002903D1D9
:101CD0006321044A117004E002490978491E014A4F
:101CE000117070470A030020002818D0194909789C
:101CF000491E194A515C491CCAB216490978491E45
:101D0000154B5A5413490978491E1A46515C6429E7
:101D10001FD100220F490978491E5A5419E00D4974
:101D20000978491E0C4A515C002906D163220949F1
:101D30000978491E084B5A540BE006490978491E98
:101D4000054A515C491ECAB202490978491E024B34
:101D50005A5470470B030020BA020020704700005D
:101D6000C206D20E01219140014A11607047000065
:101D700000E100E0C206D20E01219140014A11604B
:101D80007047000000E100E010B5002819DA1A4A97
:101D900003071B0F083B9B089B00D2588307DC0EF0
:101DA000FF23A3409A438B071B0E8407E40EA34036
:101DB0001A43114B0407240F083CA408A4001A512D
:101DC00018E00E4A03231B02D21883089B00D25846
:101DD0008307DC0EFF23A3409A438B071B0E840767
:101DE000E40EA3401A43054B032424021B19840864
:101DF000A4001A5110BD00001CED00E000E100E05D
:101E000010B5002819DA1A4A03071B0F083B9B0874
:101E10009B00D2588307DC0EFF23A3409A438B0715
:101E20001B0E8407E40EA3401A43114B0407240F32
:101E3000083CA408A4001A5118E00E4A03231B0210
:101E4000D21883089B00D2588307DC0EFF23A340DF
:101E50009A438B071B0E8407E40EA3401A43054BDD
:101E6000032424021B198408A4001A5110BD000089
:101E70001CED00E000E100E010B5002819DA1A4A74
:101E800003071B0F083B9B089B00D2588307DC0EFF
:101E9000FF23A3409A438B071B0E8407E40EA34045
:101EA0001A43114B0407240F083CA408A4001A513C
:101EB00018E00E4A03231B02D21883089B00D25855
:101EC0008307DC0EFF23A3409A438B071B0E840776
:101ED000E40EA3401A43054B032424021B19840873
:101EE000A4001A5110BD00001CED00E000E100E06C
:101EF00010B5002819DA1A4A03071B0F083B9B0884
:101F00009B00D2588307DC0EFF23A3409A438B0724
:101F10001B0E8407E40EA3401A43114B0407240F41
:101F2000083CA408A4001A5118E00E4A03231B021F
:101F3000D21883089B00D2588307DC0EFF23A340EE
:101F40009A438B071B0E8407E40EA3401A43054BEC
:101F5000032424021B198408A4001A5110BD000098
:101F60001CED00E000E100E010B5002819DA1A4A83
:101F700003071B0F083B9B089B00D2588307DC0E0E
:101F8000FF23A3409A438B071B0E8407E40EA34054
:101F90001A43114B0407240F083CA408A4001A514B
:101FA00018E00E4A03231B02D21883089B00D25864
:101FB0008307DC0EFF23A3409A438B071B0E840785
:101FC000E40EA3401A43054B032424021B19840882
:101FD000A4001A5110BD00001CED00E000E100E07B
:101FE0007047000010B500210420FFF781FF042096
:101FF00001218140014A116000BF10BD80E100E075
:1020000010B538484069012149040840002868D0CB
:102010003548C06849120840002810D03248C068CE
:1020200088433149C8600120304908703048006851
:10203000002804D101202F4908700BF03FF82A48EE
:10204000C068012149020840002843D02648C068E2
:1020500088432549C8600120274908706420274922
:10206000086027480068401C254908600020254971
:102070000870254908700120244908702448007818
:10208000002801D1012000E0002022490978002920
:1020900001D1012100E0002108401F4909780029F1
:1020A00001D1012100E000210840002802D00120D8
:1020B0001A49087018480078002802D001201849F1
:1020C00008700B480068002804D1012009490870F5
:1020D0000AF0F4FF0348406901214904084301491B
:1020E000486110BD00040140002800409A01002012
:1020F000540300209B010020AF010020B00100200C
:1021000000010020090300209F0100209E01002003
:102110007C0100207D010020AA0100200C0300208A
:10212000AE010020002009490968084A12684342AC
:102130005A40D207D20F5140044A11601146096833
:1021400001221143014A1160704700000054004011
:102150007047000000281CD01D490978491E8900DD
:102160001C4A515C491CCAB219490978491E8900A8
:10217000184B5A5416490978491E89001A46515C71
:10218000182924D1002212490978491E89005A547D
:102190001DE00F490978491E89000E4A515C00294B
:1021A00007D117220A490978491E8900094B5A5458
:1021B0000DE007490978491E8900064A515C491E0D
:1021C000CAB203490978491E8900024B5A54704724
:1021D0000B030020E402002000281CD01D490978D0
:1021E000491E89001C4A515C491CCAB21949097828
:1021F000491E8900184B5A5416490978491E89000E
:102200001A46515C3C2924D1002212490978491E02
:1022100089005A541DE00F490978491E89000E4A69
:10222000515C002907D13B220A490978491E8900DF
:10223000094B5A540DE007490978491E8900064A9E
:10224000515C491ECAB203490978491E8900024BF4
:102250005A5470470B030020C802002000284BD0BE
:1022600050490978491E89004F4A89184978FF2941
:1022700001D1012100E000214A4A1278521E920049
:102280004A4BD2185278FF2A01D1012200E00022E5
:10229000114300290FD0002242490978491E8900C4
:1022A000424BC9184A703F490978491E89003E4B84
:1022B000C9184A7075E03B490978491E89003A4AB5
:1022C00089184978491CCAB236490978491E8900DB
:1022D000354BC9184A7033490978491E89001A4696
:1022E0008918497818295CD100222E490978491E9D
:1022F0008900C9184A7054E02A490978491E8900A2
:10230000294A89184978002901D1012100E00021DA
:10231000244A1278521E9200244BD2185278002A76
:1023200001D1012200E00022114000290FD0FF223C
:102330001C490978491E89001C4BC9184A70194963
:102340000978491E8900184BC9184A7029E01549B7
:102350000978491E8900144A89184978002908D14A
:10236000172210490978491E89000F4BC9184A7075
:1023700017E00C490978491E89000B4A89184978E9
:10238000FF290ED007490978491E89008918497824
:10239000491ECAB203490978491E8900024BC9186F
:1023A0004A7070470B030020E4020020C80200209E
:1023B00000284BD050490978491E89004F4A891896
:1023C0004978FF2901D1012100E000214A4A127811
:1023D000521E92004A4BD2185278FF2A01D1012294
:1023E00000E00022114300290FD000224249097861
:1023F000491E8900424BC9184A703F490978491E55
:1024000089003E4BC9184A7075E03B490978491E5E
:1024100089003B4A89184978491CCAB2364909786B
:10242000491E8900364BC9184A7033490978491E3C
:1024300089001A46891849783C295CD100222E4926
:102440000978491E8900C9184A7054E02A49097858
:10245000491E8900294A89184978002901D101219A
:1024600000E00021244A1278521E9200244BD21818
:102470005278002A01D1012200E0002211400029F7
:102480000FD0FF221C490978491E89001C4BC9182E
:102490004A7019490978491E8900184BC9184A70B1
:1024A00029E015490978491E8900154A8918497893
:1024B000002908D13B2210490978491E8900104B98
:1024C000C9184A7017E00C490978491E89000C4A5E
:1024D00089184978FF290ED007490978491E8900D3
:1024E00089184978491ECAB203490978491E8900EA
:1024F000034BC9184A7070470B030020E402002008
:10250000C802002000284BD050490978491E890094
:102510004F4A89188978FF2901D1012100E0002163
:102520004A4A1278521E92004A4BD2189278FF2AD9
:1025300001D1012200E00022114300290FD0002226
:1025400042490978491E8900424BC9188A703F499F
:102550000978491E89003E4BC9188A7075E03B49CD
:102560000978491E89003A4A89188978491CCAB2F3
:1025700036490978491E8900354BC9188A70334994
:102580000978491E89001A468918897818295CD16A
:1025900000222E490978491E8900C9188A7054E022
:1025A0002A490978491E8900294A89188978002909
:1025B00001D1012100E00021244A1278521E92002C
:1025C000244BD2189278002A01D1012200E0002287
:1025D000114000290FD0FF221C490978491E8900AB
:1025E0001C4BC9188A7019490978491E8900184B73
:1025F000C9188A7029E015490978491E8900144ACA
:1026000089188978002908D1172210490978491EAC
:1026100089000F4BC9188A7017E00C490978491EC8
:1026200089000B4A89188978FF290ED00749097853
:10263000491E890089188978491ECAB20349097858
:10264000491E8900024BC9188A7070470B0300208D
:10265000E4020020C802002000284BD0504909782D
:10266000491E89004F4A89188978FF2901D1012123
:1026700000E000214A4A1278521E92004A4BD218BA
:102680009278FF2A01D1012200E0002211430029A3
:102690000FD0002242490978491E8900424BC918CF
:1026A0008A703F490978491E89003E4BC9188A70D3
:1026B00075E03B490978491E89003B4A89188978A9
:1026C000491CCAB236490978491E8900364BC918D7
:1026D0008A7033490978491E89001A468918897811
:1026E0003C295CD100222E490978491E8900C9186D
:1026F0008A7054E02A490978491E8900294A8918B4
:102700008978002901D1012100E00021244A1278B2
:10271000521E9200244BD2189278002A01D1012235
:1027200000E00022114000290FD0FF221C49097847
:10273000491E89001C4BC9188A7019490978491E1D
:102740008900184BC9188A7029E015490978491E73
:102750008900154A89188978002908D13B22104937
:102760000978491E8900104BC9188A7017E00C4976
:102770000978491E89000C4A89188978FF290ED0EA
:1027800007490978491E890089188978491ECAB203
:1027900003490978491E8900034BC9188A7070479C
:1027A0000B030020E4020020C802002000284BD0C8
:1027B00050490978491E89004F4A8918C978FF296C
:1027C00001D1012100E000214A4A1278521E9200F4
:1027D0004A4BD218D278FF2A01D1012200E0002210
:1027E000114300290FD0002242490978491E89006F
:1027F000424BC918CA703F490978491E89003E4BAF
:10280000C918CA7075E03B490978491E89003A4ADF
:102810008918C978491CCAB236490978491E890005
:10282000354BC918CA7033490978491E89001A46C0
:102830008918C97818295CD100222E490978491EC7
:102840008900C918CA7054E02A490978491E8900CC
:10285000294A8918C978002901D1012100E0002105
:10286000244A1278521E9200244BD218D278002AA1
:1028700001D1012200E00022114000290FD0FF22E7
:102880001C490978491E89001C4BC918CA7019498E
:102890000978491E8900184BC918CA7029E01549E2
:1028A0000978491E8900144A8918C978002908D175
:1028B000172210490978491E89000F4BC918CA70A0
:1028C00017E00C490978491E89000B4A8918C97814
:1028D000FF290ED007490978491E89008918C9784F
:1028E000491ECAB203490978491E8900024BC9181A
:1028F000CA7070470B030020E4020020C8020020C9
:1029000000284BD050490978491E89004F4A891840
:10291000C978FF2901D1012100E000214A4A12783B
:10292000521E92004A4BD218D278FF2A01D10122BE
:1029300000E00022114300290FD00022424909780B
:10294000491E8900424BC918CA703F490978491E7F
:1029500089003E4BC918CA7075E03B490978491E89
:1029600089003B4A8918C978491CCAB23649097896
:10297000491E8900364BC918CA7033490978491E67
:1029800089001A468918C9783C295CD100222E4951
:102990000978491E8900C918CA7054E02A49097883
:1029A000491E8900294A8918C978002901D10121C5
:1029B00000E00021244A1278521E9200244BD218C3
:1029C000D278002A01D1012200E000221140002922
:1029D0000FD0FF221C490978491E89001C4BC918D9
:1029E000CA7019490978491E8900184BC918CA705C
:1029F00029E015490978491E8900154A8918C978BE
:102A0000002908D13B2210490978491E8900104B42
:102A1000C918CA7017E00C490978491E89000C4A88
:102A20008918C978FF290ED007490978491E8900FD
:102A30008918C978491ECAB203490978491E890014
:102A4000034BC918CA7070470B030020E402002032
:102A5000C80200200348406B012149020843014994
:102A6000486370470010024010B50446601E0949D3
:102A7000884201D9012010BD601E07494861032129
:102A8000081FFFF781F900200349886107200861CA
:102A90000020F0E7FFFFFF0000E000E010B505F0C8
:102AA00083FB10BDF8B50025002400260027002078
:102AB00000903648C0680C2108400546002D06D01D
:102AC000042D12D0082D14D00C2D41D115E02F4823
:102AD0004068072149030840410B012088407D21BF
:102AE000490248432A49086041E02A4828490860C9
:102AF0003DE028482649086039E02448C0680F2195
:102B00008904084004462148C0680321890508401B
:102B10000646A00C20490C5CB00D461C1B48C06842
:102B20000121090408400746002F08D119496143D3
:102B300008463146FDF702FC1549086007E01549D3
:102B4000614308463146FDF7F9FB114908600EE084
:102B50000E484068072149030840400B0090009848
:102B6000401C01218140C8030949086000BF00BF23
:102B70000648C068F0210840000908490D5C044877
:102B80000068E84002490860F8BD000000100240FB
:102B90005C0300200024F40018D6000800D60008CA
:102BA0001248C068124908401049C86008460068C9
:102BB000104908400D4908600846806840084000F8
:102BC0008860084600680121890488430749086035
:102BD0000846C068FD21090488430449C8600020F4
:102BE0000861C80304498860704700000010024073
:102BF0000C40FF88F6FFF6FE00ED00E0002004E048
:102C0000401C0B49884200D905E00A498969C90777
:102C1000C90F0029F4D100BF06494968C907C90F87
:102C2000002904D00449034AD1600449D1607047A7
:102C30001027000000200240EFCDAB8905040302FD
:102C4000F8B504460025054E2046FEF757F907461D
:102C500031460AF0D9FB05462846F8BDE17A963B95
:102C600030B47446641E2578641CAB4204D3635DA3
:102C70005B00E31830BC18471D46F8E710B501218A
:102C80000520000702F002FD10BD10B5012105204E
:102C9000000702F01FFE10BD08B50B480068009049
:102CA0000A48C06A012108430849C8626A460121EE
:102CB0000520000702F000FD6A46022105200007FA
:102CC00002F0FAFC08BD0000F4D500080010024034
:102CD00010B502210520000702F0D8FC10BD00004D
:102CE00010B50D480D49086000200D4908600D49D8
:102CF00008600D4908600D4908600D4908600D49DC
:102D000008600D4908600D490860FEF793FF002038
:102D10000B49087010BD00003075000054030020FE
:102D20002001002024010020280100202C01002087
:102D30003001002034010020380100203C01002037
:102D40008B0100201FB59948006803909748001D2B
:102D500000680290954808300068019093480C3054
:102D6000006800909248C06A012108439049C862F7
:102D70000846C06A022108438D49C8620846C06AF5
:102D8000802108438A49C8626A460121052000075C
:102D900002F092FC01210520000702F07EFC02AA4D
:102DA00002210520000702F087FC02210520000710
:102DB00002F073FC02AA03210520000702F07CFC4C
:102DC00003210520000702F068FC02AA0421052067
:102DD000000702F071FC04210520000702F05DFCF1
:102DE00002AA0521080702F067FC0521080702F086
:102DF00054FC02AA06210520000702F05DFC062112
:102E00000520000702F049FC02AA0721052000075F
:102E100002F052FC07210520000702F03EFC02AA46
:102E200008210520000702F047FC082105200007C3
:102E300002F033FC02AA09210520000702F03CFC45
:102E400009210520000702F028FC02AA0A21C80671
:102E500002F032FC0A21C80602F01FFC02AA0B2174
:102E60000520000702F028FC0B210520000702F0D6
:102E700014FC02AA0C210520000702F01DFC0C2105
:102E80000520000702F009FC02AA0D210520000719
:102E900002F012FC0D2005210907896901228240F8
:102EA000114305221207916100BF01AA0E210520DE
:102EB000000702F001FC01AA0F210520000702F023
:102EC000FBFB03AA00213B4802F0F6FB03AA012109
:102ED000384802F0F1FB03AA0221364802F0ECFB6D
:102EE00003AA0321334802F0E7FB03AA0421314877
:102EF00002F0E2FB02AA05212E4802F0DDFB0521CB
:102F00002C4802F0CAFB02AA08212A4802F0D4FB8E
:102F10000821284802F0C1FB02AA0921254802F035
:102F2000CBFB0921234802F0B8FB02AA0A21214861
:102F300002F0C2FB0A211F4802F0AFFB02AA0B21DC
:102F40001C4802F0B9FB0B211A4802F0A6FB02AAAA
:102F50000C21184802F0B0FB0C21164802F09DFB32
:102F600002AA0D21134802F0A7FB0D21114802F01F
:102F700094FB02AA0E210F4802F09EFB0E210D4881
:102F800002F08BFB02AA0F210A4802F095FB0F21E9
:102F9000084802F082FB01AA0021074802F08CFBDE
:102FA00001AA0121044802F087FB1FBDE4D50008F7
:102FB0000010024000040050001C005010B5FFF744
:102FC0008FFEDD48007800287ED0DC48007800289D
:102FD00006D00020D94908700120D9490870AAE11B
:102FE000D8480078002806D00020D6490870012073
:102FF000D24908709FE1D4480078002806D000200C
:10300000D14908700120CF49087094E1CF48007879
:10301000002806D00020CD4908700120CA49087058
:1030200089E1CB480078002806D00020C849087004
:103030000120C64908707EE1C6480078002806D005
:103040000020C44908700120C149087073E1C248DA
:103050000078002806D00020BF4908700120BD4933
:10306000087068E1BD480078002806D00020BB4900
:1030700008700120B84908705DE1B948007800285F
:1030800006D00020B64908700120B449087052E10A
:10309000AB480078002806D00020A949087001201C
:1030A000AF49087047E10120A44908700020A549F4
:1030B0000870A5490870A5490870A5490870A54978
:1030C0000870A549087000E006E0A4490870A4490A
:1030D00008709B4908702EE1A248007800280AD0A9
:1030E000A1480078002885D00120A0490870002060
:1030F0009D4908701FE19E480078002862D09D48D5
:103100000078002806D001209B49087000209949CA
:10311000087010E199480078002806D001209549F0
:10312000087000209549087005E19548007800284E
:1031300006D0012091490870002091490870FAE0FA
:1031400090480078002806D001208D4908700020A2
:103150008C490870EFE08C480078002806D00120E8
:1031600088490870002088490870E4E087480078A2
:10317000002806D001208449087000208349087087
:10318000D9E083480078002806D001207F490870E4
:1031900000207F490870CEE07E480078002806D0E5
:1031A00001207B49087000207A490870C3E07A4802
:1031B000007800288FD001207649087000207649D9
:1031C0000870B8E075480078002855D00020744990
:1031D0000870012073490870734908700020734912
:1031E000087073490870734908707349087073490F
:1031F00008707349087073490860734800780028A4
:1032000002D001207149087071480078002802D06E
:1032100001207049087070480078002802D0012011
:103220006E4908706E480078002802D001206D4970
:1032300008706D480078002802D001206B490870A2
:103240006B480078002802D001206A4908706A485B
:103250000078002802D0012068490870684800788A
:10326000002805D00120674908706749087062E0AE
:103270000120664908705EE06548007800282BD080
:1032800061480078002806D000205F4908700120BE
:10329000604908704FE060480078002806D00020A0
:1032A0005D49087001205849087044E05B48007887
:1032B000002806D00020594908700120564908709E
:1032C00039E054480078002835D000205149087072
:1032D0000120524908702EE04A48007800282AD080
:1032E00049480078002806D000204749087001208E
:1032F000484908701FE048480078002806D00020A0
:103300004549087001204049087014E0434800789E
:10331000002806D000204149087001203E4908706D
:1033200009E03C480078002805D0002039490870A1
:1033300001203A49087010BD9F010020A001002023
:10334000A9010020A1010020A2010020A30100206A
:10335000A4010020A5010020A6010020A701002053
:10336000A8010020580100205B0100205C01002022
:10337000590100205E0100205D0100206401002051
:10338000650100206601002067010020680100201F
:10339000690100206A0100206B01002076010020F5
:1033A000AE0100200C0300209D01002079010020C7
:1033B0007A0100207B010020AD0100207C0100206B
:1033C0007D010020D40000207E0100200E0300209B
:1033D0007F01002010030020800100201203002044
:1033E0008101002014030020820100201603002028
:1033F0008301002018030020840100201A0300200C
:1034000095010020940100208F0100205701002029
:1034100078010020920100209001002091010020FD
:10342000F8B54D488068042108434B4988600A205C
:1034300004F0AEFE484840300068484908604648FD
:103440008068102108434449886044480068FFF7B9
:10345000F7FB43490860084600684249096889004B
:10346000414A50503F480068401C3E4908600846A9
:1034700000680A2828DB01203C49087000203949EF
:1034800008603B49086000240EE0A100364A50580D
:103490003849FDF75FFC054635480168284609F0C4
:1034A0006DFF33490860641C0A2CEEDB304800686D
:1034B000FDF726FC0446304A304BFDF7A9F90646D5
:1034C000FCF7ECFF2A4908602D492948006809F0FB
:1034D000F3FF02D22A482649086025480068FDF714
:1034E0000FFC0446274A284B09F0E2FE32D2274857
:1034F0000078002802D0012025490870254800786E
:10350000002802D0012024490870244800780028AF
:1035100002D001202249087022480078002802D0F9
:1035200001202149087021480078002802D001209C
:103530001F4908701F480078002802D001201E494A
:1035400008701E480078002802D001201C4908702D
:1035500004F0C2F9F8BD0000002401400C00002076
:10356000140000201800002060030020AB010020A0
:10357000440100200000204183C0CAA145B6F73FA6
:10358000000010413333333333331B407E010020BE
:103590000E0300207F010020100300208001002086
:1035A000120300208101002014030020820100206A
:1035B000160300208301002018030020840100204E
:1035C0001A03002001460022C9B2632901D9002054
:1035D000704701E00A3910320A29FBD2084610432D
:1035E00001460846F4E7000010B504460B48005DAC
:1035F00000280CD1A0000A490858002807D0074825
:10360000015DA000064B1A582046904705E003488C
:10361000005D012801D10349085510BD210000209B
:103620001C0000202000002070B504460E46154600
:10363000002D00D004E07F220CA110A0FCF740FE7A
:10364000022E00DA04E0802208A111A0FCF738FE67
:10365000012C00DA04E0812204A118A0FCF730FE5E
:103660001B480655A0001B490D5070BD68775C7360
:1036700072635C62746E2E630000000070664361CA
:103680006C6C6261636B20213D204E554C4C0000F8
:103690007442746E48616E646C696E67437478201E
:1036A0003C2042544E5F48414E444C494E475F4394
:1036B00054585F494E56414C494400007442746E60
:1036C000203C2042544E5F5155414E5449545900BC
:1036D000210000201C00002010B5F7480069C0063A
:1036E000C00EF649087008460078F5490978884206
:1036F00077D1F4480078401CF2490870F24800780D
:10370000EE49097888426DD0EE48007803286AD1E6
:103710000020EC490870EC480078EC490870E74854
:103720000078E9490870E5480078E8490978484098
:10373000E64909780840E6490870084600780028FC
:1037400051D008460078102801D1012000E0002067
:10375000E0490978002901D1012100E00021084059
:10376000002801D001F02CF8D9480078082801D1B0
:10377000012000E00020D7490978002901D101216A
:1037800000E000210840002801D002F075F9D0487F
:103790000078042801D1012000E00020CD490978FB
:1037A000002901D1012100E000210840002812D0A9
:1037B000C9480078002801D1012000E00020C74955
:1037C0000978002901D1012100E0002108400028EA
:1037D00001D003F0D7FBBE480078022804D10120B5
:1037E00003E07EE26CE06AE00020BA490978002933
:1037F00001D1012100E000210840002801D001F0A2
:103800005DFBB3480078012800D100E00020B149F9
:103810000978002901D1012100E000210840002899
:1038200001D0FFF7CBFBAA4800780A2801D101207C
:1038300000E00020A7490978002901D1012100E01A
:1038400000210840A5490978002901D1012100E0A3
:1038500000210840002804D0FFF742FA0120A049C7
:1038600008709B480078032801D1012000E0002067
:1038700098490978002901D1012100E00021084080
:1038800096490978002901D1012100E00021084072
:10389000002806D093480078002802D001209249E1
:1038A00008708B480078072801D1012000E0002033
:1038B0008A4909780840002801D000F06BFB26E215
:1038C000804800780828FAD100207E49087087488F
:1038D0000078FF287ED085480078401C8349087016
:1038E000084600780F2875D1794800780A2801D158
:1038F000012000E0002077490978002901D1012149
:1039000000E00021084075490978002901D1012112
:1039100000E000210840002801D0FEF7E5F86C48DF
:103920000078182801D1012000E0002069490978B9
:10393000002901D1012100E00021084067490978F0
:10394000002901D1012100E000210840002801D018
:1039500000F00CFF5E480078092801D1012000E04A
:1039600000205C490978002901D1012100E00021F3
:1039700008405A490978002901D1012100E00021BD
:103980000840002801D002F07FFB5148007803284E
:1039900001D1012000E000204E490978002901D121
:1039A000012100E0002108404C490978002901D19B
:1039B000012100E000210840002805D04C48007893
:1039C000002801D001F010FE41480078012871D193
:1039D000484800E03DE1007800286CD04648007877
:1039E000002801D1012000E0002044490978084066
:1039F00043490978002901D1012100E00021084054
:103A0000002802D001203F4908703B480078002878
:103A100001D1012000E000203B49097808403849E5
:103A20000978002901D1012100E000210840002887
:103A300002D00120354908702F480078002801D1B4
:103A4000012000E000203249097808402C4909781B
:103A5000002901D1012100E000210840002802D006
:103A600001202C49087024480078002801D1012049
:103A700000E00020284909780840214909780029F8
:103A800001D1012100E000210840002802D00120DE
:103A90002249087018480078002801D1012000E070
:103AA00000201F490978084015490978002939D1B3
:103AB000012138E06BE06BE000040050240000209E
:103AC00025000020290000202600002027000020DB
:103AD000280000209C010020940100209F0100206C
:103AE0008D01002057010020970100202A000020AE
:103AF00078010020AA0100207C0100207E01002026
:103B00007D0100200E0300207F0100201003002013
:103B100080010020120300208101002014030020F6
:103B20008201002000210840002802D001207849AD
:103B3000087078480078002801D1012000E00020BA
:103B400075490978084075490978002901D1012192
:103B500000E000210840002802D0012070490870D0
:103B60006C480078002801D1012000E000206D4958
:103B70000978084069490978002901D1012100E04C
:103B800000210840002836D001206749087032E043
:103B900066480078002803D16548007800282AD0BC
:103BA0006448007800280DD000206249087000BFEA
:103BB000BFF34F8F60486149C860BFF34F8F00BFAC
:103BC00000BFFEE7FEF736F801205D4908705D4949
:103BD00008705D4908705D4908704D49087050498A
:103BE000087051490870534908700020584908600E
:103BF00001205849086058480078022801D1012066
:103C000000E000204B490978002901D1012100E0A2
:103C10000021084051490978002901D1012100E023
:103C200000210840002814D040480078002810D017
:103C300001204B49087042490870424908704249C6
:103C40000870424908703249087035490870364991
:103C5000087044480078FF2859D042480078401C3A
:103C60004049087008460078052850D10846007879
:103C7000401E087038480078102801D1012000E06B
:103C800000202C490978002901D1012100E0002100
:103C9000084032490978002901D1012100E00021C2
:103CA0000840002801D000F08BFD2B480078082840
:103CB00001D1012000E000201E490978002901D12E
:103CC000012100E00021084024490978002901D1A0
:103CD000012100E000210840002818D001F0CCFEAE
:103CE00015E0002020490870204908701D4908701F
:103CF0001F4800781F4908701F480078012801D12B
:103D0000FDF798FF00201C4908701C49087010BD81
:103D1000160300207C010020830100207D0100208B
:103D200018030020840100201A03002057010020FE
:103D3000940100209C0100200400FA0500ED00E041
:103D40000E030020100300201203002014030020A3
:103D50005403002050030020280000209F01002071
:103D6000960100202B000020290000202A000020BE
:103D700024000020250000208D0100209701002054
:103D800008B51148006800901048C06A0221084335
:103D90000E49C8626A4600210D4801F08DFC6A4652
:103DA00001210B4801F088FC6A460221084801F015
:103DB00083FC6A460321064801F07EFC6A46042122
:103DC000034801F079FC08BDE0D50008001002406E
:103DD0000004005010B5002000210C4A116800BFFB
:103DE00010E082000A4B9A58520052088A4207D8C3
:103DF00000228300064CE2500023421C9200A35094
:103E0000821CD0B23828ECDB10BD00000028004036
:103E100074040020F8B54A002B4B520DD6182B4ADB
:103E20000C460546142E2BDA002E12DA284BFCF72E
:103E3000EFFC0022134609F06DFA40D2002C03DAA1
:103E40000124E40700253AE02046284337D0214CDE
:103E500014E0214F0B46F7403B402B4331D01C4B25
:103E6000FCF7D6FC0022134609F054FA27D2002CA6
:103E700003DD01200005F0400419BC4300251EE0CD
:103E8000332E1EDC33460027143BFF43DF4038420D
:103E900017D00F4BFCF7D4FC0022134609F03AFA76
:103EA0000DD2002C0ADD142E0CD03420811B0120F1
:103EB00088404019A84200D2641C0546BD432146F3
:103EC0002846F8BD641CF9E701FCFFFF9C750088DB
:103ED0003CE4377E0000F03FFFFF0F00F0B5002408
:103EE0003822002106E08D00274E75598E00274F9D
:103EF000BD51491C9142F6DB002142E000203CE02C
:103F00008500224E7659851CAD00204F7D59AE426A
:103F100032D985003E467359851CAD00755986001F
:103F2000BD51851CAD003E467351451CAD00735913
:103F3000C51CAD007659451CAD007E51C51CAD00B9
:103F40003E4673518500124E7459851CAD0075595B
:103F500086000F4FBD51851CAD003E467451451C77
:103F6000AD007459C51CAD007659451CAD007E519D
:103F7000C51CAD003E467451801C951E8542BFDCB9
:103F8000891C9142BADBF0BD940300207404002028
:103F9000CC01002010B56148007861490978884259
:103FA00001D1012000E000205C4949785C4A527848
:103FB000914201D1012100E0002108405749897850
:103FC000574A9278914201D1012100E00021084036
:103FD0005249C978524AD278914201D1012100E078
:103FE000002108404D4909794D4A1279914201D189
:103FF000012100E00021084048494979484A5279A6
:10400000914201D1012100E0002108404349897912
:10401000434A9279914201D1012100E000210840F8
:104020003E49C9793E4AD279914201D1012100E04D
:10403000002108403949097A394A127A914201D15E
:10404000012100E0002108403449497A344A527A7B
:10405000914201D1012100E000210840002834D024
:1040600000F0F2F8FDF7E6FD00202E49087001206F
:104070002D49087000202D4908702D490870012035
:104080002C49087000202C49087001202B49087029
:1040900000202B49087048708870C8702949087042
:1040A0002949087029490870294908702949087068
:1040B0002949087029490870294908702949087058
:1040C00029490870294908701BE000201D49087023
:1040D0001D4908701D4908701D4908701D49087068
:1040E0001D4908701D4908701D4908701D49087058
:1040F0001D4908701D4908700120124908701249B5
:10410000087000200549087048708870C8700871F0
:1041100048718871C8710872487210BD8803002008
:10412000C0010020940100205701002095010020CB
:104130000803002093010020090300209E010020B5
:10414000040300209F010020A0010020A101002005
:10415000A2010020A3010020A4010020A50100204D
:10416000A6010020A7010020A8010020A90100202D
:1041700010B52B4800782B490978884201D10120DD
:1041800000E0002026494978264A5278914201D120
:10419000012100E00021084021498978214A9278D4
:1041A000914201D1012100E0002108401C49C97859
:1041B0001C4AD278914201D1012100E0002108403F
:1041C000002812D000F040F8FDF734FD002015491A
:1041D000087048708870C87013490870012013492E
:1041E000087000201249087019E000200D4908707D
:1041F00048708870C87001200E4908700E48007819
:10420000401C0D49087001200C4908700A480078CC
:10421000052804DB01200A4908700A49087010BD0E
:104220000003002004030020940100205701002017
:10423000950100208F010020090300209E0100202D
:104240009F010020A001002000201D4908701D4989
:1042500008701D4908701D4908701D4908701D49E6
:1042600008701D4908701D4908701D4908701D49D6
:1042700008701D4908701D4908701D4908701D49C6
:1042800008701D4908701D4908701D4908701D49B6
:1042900008701D4908701D4908701D4908701D49A6
:1042A00008701D4908701D4908701D4908701D4996
:1042B00008701D4908701D4908701D490870704735
:1042C0005B0100205C0100206C0100206D010020DA
:1042D0006E010020790100207A0100207B0100207E
:1042E000AD010020870100208E0100208F010020F9
:1042F0009001002091010020920100205E01002029
:104300005F010020600100206101002062010020A7
:104310006301002064010020650100206601002087
:104320006701002068010020690100206A01002067
:104330006B01002010B505200007406908490843BB
:104340000521090748610A2003F022FF0520000724
:1043500040690449084005210907486110BD000073
:10436000B819000007E6FFFF10B5052000074069F7
:10437000084908430521090748610A2003F008FF9E
:1043800005200007406904490840052109074861E4
:1043900010BD0000F811000007E6FFFF10B5052072
:1043A00000074069084908430521090748610A20B8
:1043B00003F0EEFE0520000740690449084005218E
:1043C0000907486110BD0000D819000007E6FFFF8B
:1043D00010B5052000074069084908430521090771
:1043E00048610A2003F0D4FE052000074069044913
:1043F000084005210907486110BD0000F8180000B9
:1044000007E6FFFF10B5052000074069084908438B
:104410000521090748610A2003F0BAFE05200007BC
:1044200040690449084005210907486110BD0000A2
:10443000E819000007E6FFFF10B5052000074069F6
:10444000084908430521090748610A2003F0A0FE36
:104450000520000740690449084005210907486113
:1044600010BD00007819000007E6FFFF10B5052019
:1044700000074069084908430521090748610A20E7
:1044800003F086FE05200007406904490840052125
:104490000907486110BD0000F019000007E6FFFFA2
:1044A00070B50446CA201D49486253204862084638
:1044B00080688915884319498860002504E06D1CCF
:1044C0001748854200D905E01448C068C007C00FEE
:1044D0000028F4D000BF1148C4618068112109028E
:1044E00008430E498860FE204862642048620D48F7
:1044F00000680121490408430A49086008468068A9
:104500000121490408430749886000210220FDF782
:104510002BFD0220FDF72EFC70BD0000002800409E
:10452000102700000004014070B50446CA201D4950
:1045300048625320486208468068491588431949F3
:104540008860002504E06D1C1748854200D905E00D
:104550001448C068022108400228F4D100BF114865
:10456000046280681121490208430E498860FE20D8
:104570004862642048620D480068012149040843EC
:104580000A49086008468068012149040843074930
:10459000886000210220FDF7E7FC0220FDF7EAFB1E
:1045A00070BD0000002800401027000000040140FA
:1045B0006748007800287DD000206549087065486C
:1045C0000078644988710846007848710846007888
:1045D000087108460078C870084600788870084658
:1045E000007848705C4800785B498871084600781C
:1045F000487108460078087108460078C870084677
:10460000007888700846007848705448007853490C
:104610008871084600784871084600780871084695
:104620000078C8700846007888700846007848709E
:104630004B4800784A498871084600784871084616
:104640000078087108460078C870084600788870BD
:104650000846007848704348007842490871084687
:104660004178417181788171C178C17100783D498B
:10467000087208464178417281788172C178C172AE
:10468000007838490873084641784173817881730E
:10469000C178C17300783349087408464178417481
:1046A00081788174C178C17400782E4908750846F4
:1046B000417800E04BE0417581788175C178C17522
:1046C00000782849087608464178417681788176D5
:1046D000C178C1762448007823490871084641789A
:1046E000417181788171C178C17100781E49087269
:1046F00008464178417281788172C178C172007830
:104700001949087308464178417381788173C178EB
:10471000C17300781449087408464178417481785F
:104720008174C178C17400780F49087508464178D2
:10473000417581788175C178C17500780A4908761C
:1047400008464178417681788176C178C176704794
:104750008A010020AC020020B3020020BA0200202F
:10476000C1020020C8020020E402002010B5FEF7BC
:10477000B7FA0D4800780D49097808400C490978C6
:10478000012900D100E00021084000280AD00120C2
:104790000849087000200549087007490870012081
:1047A0000649087010BD0000590100205D0100207D
:1047B0000B03002088010020890100208B010020CC
:1047C00010B5FEF78DFAFA480078002859D0F9485C
:1047D0000078002804D00021012002F087FD98E233
:1047E000F5480078002804D00021022002F07EFD68
:1047F0008FE2F2480078002804D00021032002F064
:1048000075FD86E2EE480078002804D000210420DF
:1048100002F06CFD7DE2EB480078002804D0002116
:10482000052002F063FD74E2E7480078002804D018
:104830000021062002F05AFD6BE2E44800780028CF
:1048400004D00021072002F051FD62E2E048007828
:10485000002804D00021082002F048FD59E2DD487C
:104860000078002804D00021092002F03FFD50E22A
:10487000D94800780028B2D000210A2002F036FD85
:1048800047E2D648007800282FD0D5480078002885
:1048900003D0002003F0BAFF1EE0D24800780028C1
:1048A00003D0002007F0A0FC16E0CF4800780028D5
:1048B00003D0002008F076FB0EE0CC4800780028FA
:1048C00003D0002004F09AF806E0C94800780028D8
:1048D00002D0002007F012FC0020C6490870012019
:1048E000C5490870C549087013E2C548007800281A
:1048F00075D0C4480078002803D0002002F0CEFF15
:1049000020E1C1480078002803D0002003F0E0F93E
:1049100018E1BE480078002803D00020FDF71AFCFB
:1049200010E1BB480078002803D00020FDF754FCBC
:1049300008E1B8480078002803D00020FDF78EFC7D
:1049400000E1B5480078002803D00020FDF730FDD5
:10495000F8E0B2480078002803D00020FDF7D2FD2F
:10496000F0E0AF480078002803D00020FDF774FE87
:10497000E8E0AC480078002803D00020FDF716FFDF
:10498000E0E0A9480078002803D00020FDF7B8FF38
:10499000D8E0A6480078002806D00020A349087077
:1049A0000120A3490870CDE0A1480078002873D009
:1049B000A0480078002813D000209E4908700120EC
:1049C0009D4908709D480078401E9D49085C41083B
:1049D00049009A480078401E994A1154B2E0BAE062
:1049E00095480078002812D00020934908700120D3
:1049F0009449087091480078401E9149085C022152
:104A000088438E490978491E8D4A50549AE08D4852
:104A10000078002812D000208A49087001208A49B5
:104A2000087086480078401E8549085C0421884348
:104A300082490978491E824A505483E082480078AE
:104A4000002812D000208049087001207F4908709A
:104A50007A480078401E7A49085C082188437749E3
:104A60000978491E764A50546CE07848007800284E
:104A700013D00020754908700120754908706F48EF
:104A80000078401E6E49085C102188436B49097804
:104A9000491E6B4A505455E03CE06D4800780028B0
:104AA00012D000206A49087001206A4908706348E2
:104AB0000078401E6249085C202188435F490978DC
:104AC000491E5F4A50543DE06248007800281AD0E1
:104AD00000206049087001204A4908704849087060
:104AE00000205349087055480078401E5449085C1E
:104AF0004021884351490978491E514A50540120A8
:104B000002F0CCFE1EE00020494908700120524905
:104B1000087017E050480078002813D04F480078FC
:104B2000002809D00020FCF701FD0021434800784F
:104B3000401E434A115405E00020474908700120F7
:104B40003A49087000202B49087001202A49087052
:104B50002A490870DDE042480078002826D0414804
:104B60000078002812D040480078012803D10020A6
:104B70003D490870CDE031480078012802D100BFDE
:104B800039490870002002F089FEC2E037480078F9
:104B9000002803D00020FDF789F8BAE034480078F7
:104BA000002802D00020FDF79FF8B2E062E000008C
:104BB0009F010020A0010020A1010020A2010020EF
:104BC000A3010020A4010020A5010020A6010020CF
:104BD000A7010020A8010020A90100205801002001
:104BE0006C0100206D0100206E0100205C0100209E
:104BF0005B010020AE0100200C0300209D0100207D
:104C0000590100205D0100205E01002064010020A8
:104C10006501002066010020670100206801002076
:104C2000690100206A0100206B0100206001002062
:104C3000620100206F010020700100200B030020A2
:104C4000C1020020710100207201002073010020C8
:104C50007401002075010020610100206301002023
:104C60007601002079010020AC010020AD01002078
:104C70007B01002027480078002823D026480078B0
:104C8000002804D00021012002F008FB41E0234865
:104C90000078002804D00021022002F0FFFA38E05A
:104CA0001F480078002804D00021032002F0F6FA03
:104CB0002FE01C48007800282BD00021042002F0AF
:104CC000EDFA26E018480078002822D01248007833
:104CD000002804D00021012002F0E0FA19E00F487A
:104CE0000078002804D00021022002F0D7FA10E05A
:104CF0000B480078002804D00021032002F0CEFAEF
:104D000007E008480078002803D00021042002F0C2
:104D1000C5FA10BD780100208F010020900100200D
:104D2000910100209201002094010020F8B5044672
:104D30000D46164632462946204608F081FA0746B7
:104D40000721FBF705FB481CF8BD0000514800781F
:104D500000287DD000204F4908704F4908704870E6
:104D60008870C8700871487188714C490870487023
:104D70008870C87008714871887149490870487016
:104D80008870C87008714871887146490870487009
:104D90008870C87008714871887143490870FF2095
:104DA00048708870C87000200871FF213E4841712A
:104DB0008171C17100203C490872FF213A4841725B
:104DC0008172C172002038490873FF21364841734F
:104DD0008173C173002034490874FF213248417443
:104DE0008174C174002030490875FF212E48417537
:104DF0008175C17500202C490876FF212A4841762B
:104E00008176C176002029490870FF20487088709B
:104E1000C87000200871FF21244841718171C1715F
:104E2000002022490872FF21204841728172C1721C
:104E300000201E490873FF211C4841738173C17310
:104E400000201A490874FF2118484174817400E059
:104E50001FE0C174002015490875FF2113484175F2
:104E60008175C175002011490876FF210F484176F0
:104E70008176C17600200AE0002182000C4B995017
:104E800082000C4B995001210B4A1170401C3828AC
:104E9000F2DB704796010020AC020020B302002034
:104EA000BA020020C1020020C8020020E402002053
:104EB00094030020740400200C03002010B5FDF7BB
:104EC0000FFFF648007800287ED0F54800780028CB
:104ED00006D00020F24908700120F24908704AE328
:104EE000F0480078002806D00020EE490870012024
:104EF000ED4908703FE3EC480078002806D0002018
:104F0000E94908700120E949087034E3E74800786E
:104F1000002806D00020E54908700120E449087007
:104F200029E3E3480078002806D00020E049087013
:104F30000120E04908701EE3DE480078002806D012
:104F40000020DC4908700120DB49087013E3DA48CF
:104F50000078002806D00020D74908700120D749E2
:104F6000087008E3D5480078002806D00020D3490F
:104F700008700120D2490870FDE2D148007800286D
:104F800006D00020CE4908700120CE490870F2E218
:104F9000CC480078002806D00020CA4908700120BB
:104FA000BF490870E7E20120BD4908700020BD49F3
:104FB0000870BD490870BD490870BD490870BD49F9
:104FC0000870BD49087000E006E0BC490870BC49A3
:104FD0000870BC490870CEE2BB480078002856D063
:104FE000BA480078002806D00020B849087001208F
:104FF000B7490870BFE2B6480078002806D0002004
:10500000B34908700120B3490870B4E2B148007890
:10501000002806D00020AF4908700120AE49087072
:10502000A9E2AD480078002806D00020AA490870FF
:105030000120AA4908709EE2A8480078002817D0ED
:105040000020A6490870FFF7FFF800209E4908706D
:10505000A3480078002805D00120A2490870A24981
:10506000087088E20120A1490870A149087082E215
:1050700001209649087000209E49087097490870E1
:1050800095490870924908709249087073E29748F0
:105090000078002879D096480078002806D00020B3
:1050A0009349087001209449087064E2924800789E
:1050B000002806D001209149087000208E49087010
:1050C00059E28E480078002806D001208C490870EB
:1050D00000208A4908704EE289480078002806D0EE
:1050E00001208849087000208549087043E28548FE
:1050F0000078002806D001208349087000208149EB
:10510000087038E280480078002806D001207F49E6
:10511000087000207C4908702DE27C480078002847
:1051200006D001207A49087000207849087022E2F0
:1051300077480078002806D00120764908700020C2
:105140007349087017E273480078002806D00120E0
:105150007149087000206F4908700CE26E480078B1
:1051600000282DD000206C4908706C480078401E43
:105170006B49085C002809D001206A4908700020AA
:105180006949087069490870F5E105E163480078EC
:10519000401E6749085C002809D00020614908705A
:1051A000012061490870002060490870E3E1002097
:1051B0005C4908705C49087001205C490870DAE1BC
:1051C0005A480078002830D054480078072815D174
:1051D000002056490870464908704449087000216B
:1051E0004E480078401E4E4A11544C480078401EEC
:1051F0004F4A115401204F490870BCE101203B493E
:1052000008703B490870002144480078401E444A19
:10521000115442480078401E454A1154012002F0C2
:105220003DFB002041490870A5E13F480078002877
:1052300033D041480078414909780843404909780A
:1052400008434049097808433F49097808433F49E2
:10525000097808433E490978084300287DD000209A
:10526000304908703B490870334908703349087069
:10527000334908703349087033490870334908705E
:105280003349087001201A4908701849087002F063
:1052900005FB0020244908706DE164E09F010020B7
:1052A000A0010020A1010020A2010020A3010020F4
:1052B000A4010020A5010020A6010020A7010020D4
:1052C000A8010020A9010020580100206E01002043
:1052D0006D0100206C0100205C0100205B010020BA
:1052E00095010020940100208F0100205901002029
:1052F0005D0100205A0100205E01002064010020B1
:10530000650100206601002067010020680100207F
:10531000690100206A0100206B0100200B030020BE
:10532000B302002061010020620100206001002022
:10533000C1020020570100206F01002070010020F1
:10534000710100207201002073010020740100200F
:105350007501002063010020FFE7012086490870E5
:105360008649087007E186480078002894D085486F
:10537000007800280CD0002081490870814908700D
:105380000120814908707C49087002F087FAF2E038
:1053900001207C490870EEE07C48007800285BD052
:1053A0007B480078002814D000207949087079489B
:1053B0000078002806D0002077490870012077493E
:1053C0000870D8E001207449087000207349087003
:1053D000D1E07248007800281BD07148007800287E
:1053E0000CD000206D49087001206E4908706E488D
:1053F0006E49086001206E490870BCE000206349D6
:1054000008706649087001206A4908706A49087086
:10541000B1E061480078002812D067480078401E4B
:105420006649085C00280CD000205B490870012008
:10543000634908705C485D49086001205C49087058
:1054400099E00020514908705349087001205949DA
:105450000870594908708EE05A480078002837D003
:1054600059480078002806D00020574908700120CC
:10547000564908707FE055480078002806D0002083
:105480005249087001205249087074E05048007871
:10549000002806D000204E49087001204D490870B0
:1054A00069E04C480078002806D00020494908707F
:1054B0000120454908705EE0012042490870002043
:1054C000454908700120454908703F49087052E07D
:1054D0004348007800284ED03B480078002806D08A
:1054E00000203949087001203849087043E03748E6
:1054F0000078002806D00020344908700120344983
:10550000087038E032480078002806D00020304982
:10551000087001202F4908702DE02E4800780028DF
:1055200029D000202B4908702E480078002801D18E
:10553000012000E000202B494978002901D10121F8
:1055400000E00021084027498978002901D1012184
:1055500000E0002108402349C978002901D1012138
:1055600000E000210840002803D0012016490870FF
:1055700001E0FEF7FDFD10BD590100206F01002084
:1055800061010020630100205D0100207601002000
:1055900079010020AC0100207B010020AD0100203A
:1055A0000A0300207D010020B80B0000D400002079
:1055B0000C030020570100200B030020BA0200203A
:1055C0007C010020780100208F0100209001002044
:1055D0009101002092010020870100208E0100200F
:1055E000940100200403002010B5FDF779FBFEF7BD
:1055F0002BFEFCF71FFB00201C49087001201C49F2
:1056000008701C480078002801D1012000E000202B
:1056100018494978002901D1012100E00021084002
:1056200014498978002901D1012100E000210840B6
:105630001049C978002901D1012100E0002108406A
:10564000002808D000200C4908700C49087001207F
:105650000B49087008E001200749087007490870E5
:10566000084908700849087010BD00007801002042
:10567000930100200403002008030020950100206E
:10568000570100208F01002094010020826901232E
:105690001B048B401A4382617047826901231B04FB
:1056A0008B401A4382617047826901231B048B403F
:1056B0001A4382617047000070B504460E461546D5
:1056C0000520000784420BD04848844208D048484F
:1056D000844205D04748844202D04748844200D1E2
:1056E00004E0472245A149A0FAF7EAFDFF2E00D2C7
:1056F00004E0482241A14CA0FAF7E2FD28780028F6
:1057000008D02878012805D02878102802D02878D9
:10571000112800D104E0492238A148A0FAF7D0FDB1
:105720006878002802D06878012800D104E04A2275
:1057300032A14BA0FAF7C4FDA878002808D0A878B9
:10574000012805D0A878102802D0A878112800D107
:1057500004E04B2229A14CA0FAF7B2FDE87800281A
:1057600005D0E878012802D0E878102800D104E0BC
:105770004C2222A14EA0FAF7A3FD2068720003215B
:1057800091408843206028788007800F710088400E
:105790002168084320606878002805D160680121ED
:1057A000B1408843606004E060680121B140084373
:1057B0006060A0687200032191408843A060A878CF
:1057C0008007800F71008840A1680843A060E168ED
:1057D000B200032090408143E160E8788007800FA9
:1057E00071008840E1680843E06070BD000400502B
:1057F00000080050000C0050001C005068775C73DB
:1058000072635C6770696F2E6300000049535F47E5
:1058100050494F5F424153452870744770696F4249
:10582000617365290000000049535F4750494F5F8D
:1058300050494E2875333250696E290049535F47ED
:1058400050494F5F4D4F44452870744770696F4908
:105850006E69742D3E744770696F4D6F64652900E1
:1058600049535F4750494F5F4F5554505554287026
:10587000744770696F496E69742D3E744770696F23
:105880004F7574707574290049535F4750494F5FD5
:1058900053504545442870744770696F496E697468
:1058A0002D3E744770696F53706565642900000070
:1058B00049535F4750494F5F50554C4C28707447CF
:1058C00070696F496E69742D3E744770696F5075C9
:1058D0006C6C2900826901238B401A4382617047F6
:1058E000826901238B401A438261704782690123D8
:1058F0008B401A438261704710B55348406B0121B9
:1059000008435149486350484030406840084000CF
:105910004D494031486008464068042188434A495F
:10592000403148600846406820218843464940315C
:1059300048600846406889148843434940314860BC
:10594000084640680121890388433F494031486047
:10595000084600680121090688433B494031086038
:105960000846006840084000086008460068400893
:105970004000086008460068891588433249403174
:10598000086008460068491588432F49403108607F
:1059900008460068891488432B494031086008464E
:1059A00000680121090488432749403108600846FE
:1059B000006801210905884323494031086000201F
:1059C00088602148C06B082188431F49C863FBF7E2
:1059D00029FF00BF00BF00BF00BF00BF00BF00BF66
:1059E00000BF00BF00BF00BF00BF01F0A1FB00BFB0
:1059F00000BF00BF00BF00BF00BF00BF00BF00BFAF
:105A000000BF00BF00BFFEF7BBF9FDF745F9FDF78A
:105A100021F800BF00BF00BF00BFFBF717FD00BFAC
:105A200000BF00BF00BFFBF7E3FC00BF00BF00BF2B
:105A300000BFFBF723FEFBF731FDFBF751FDFDF740
:105A400047F9FDF722F910BD001002400848806BAD
:105A500001210907084306498863064800680321B5
:105A6000C90288430121C9024018024908607047F1
:105A7000001002400070004010B5FDF731F9FC48FD
:105A80000078002859D0FB480078002804D0012174
:105A9000084601F02BFCD8E2F7480078002804D033
:105AA0000121022001F022FCCFE2F4480078002816
:105AB00004D00121032001F019FCC6E2F04800786F
:105AC000002804D00121042001F010FCBDE2ED48C3
:105AD0000078002804D00121052001F007FCB4E281
